{
	"data": {
		"bytecode": {
			"linkReferences": {},
			"object": "6101c7610030600b82828239805160001a6073146000811461002057610022565bfe5b5030600052607381538281f3007300000000000000000000000000000000000000003014608060405260043610610063576000357c0100000000000000000000000000000000000000000000000000000000900463ffffffff168063d17fb9ea14610068578063e0068052146100a6575b600080fd5b61009060048036038101908080359060200190929190803590602001909291905050506100e4565b6040518082815260200191505060405180910390f35b6100ce600480360381019080803590602001909291908035906020019092919050505061010e565b6040518082815260200191505060405180910390f35b6000808314806100f45750600082145b156101025760009050610108565b81830290505b92915050565b60008082111515610187576040517f08c379a00000000000000000000000000000000000000000000000000000000081526004018080602001828103825260188152602001807f4e6f20706f64656d6f73206469766964697220706f722030000000000000000081525060200191505060405180910390fd5b818381151561019257fe5b049050929150505600a165627a7a72305820fd0cb58c6c09672a9e02674f0ab2cf4b8ab2931ef220b92831c2757e0dac139a0029",
			"opcodes": "PUSH2 0x1C7 PUSH2 0x30 PUSH1 0xB DUP3 DUP3 DUP3 CODECOPY DUP1 MLOAD PUSH1 0x0 BYTE PUSH1 0x73 EQ PUSH1 0x0 DUP2 EQ PUSH2 0x20 JUMPI PUSH2 0x22 JUMP JUMPDEST INVALID JUMPDEST POP ADDRESS PUSH1 0x0 MSTORE PUSH1 0x73 DUP2 MSTORE8 DUP3 DUP2 RETURN STOP PUSH20 0x0 ADDRESS EQ PUSH1 0x80 PUSH1 0x40 MSTORE PUSH1 0x4 CALLDATASIZE LT PUSH2 0x63 JUMPI PUSH1 0x0 CALLDATALOAD PUSH29 0x100000000000000000000000000000000000000000000000000000000 SWAP1 DIV PUSH4 0xFFFFFFFF AND DUP1 PUSH4 0xD17FB9EA EQ PUSH2 0x68 JUMPI DUP1 PUSH4 0xE0068052 EQ PUSH2 0xA6 JUMPI JUMPDEST PUSH1 0x0 DUP1 REVERT JUMPDEST PUSH2 0x90 PUSH1 0x4 DUP1 CALLDATASIZE SUB DUP2 ADD SWAP1 DUP1 DUP1 CALLDATALOAD SWAP1 PUSH1 0x20 ADD SWAP1 SWAP3 SWAP2 SWAP1 DUP1 CALLDATALOAD SWAP1 PUSH1 0x20 ADD SWAP1 SWAP3 SWAP2 SWAP1 POP POP POP PUSH2 0xE4 JUMP JUMPDEST PUSH1 0x40 MLOAD DUP1 DUP3 DUP2 MSTORE PUSH1 0x20 ADD SWAP2 POP POP PUSH1 0x40 MLOAD DUP1 SWAP2 SUB SWAP1 RETURN JUMPDEST PUSH2 0xCE PUSH1 0x4 DUP1 CALLDATASIZE SUB DUP2 ADD SWAP1 DUP1 DUP1 CALLDATALOAD SWAP1 PUSH1 0x20 ADD SWAP1 SWAP3 SWAP2 SWAP1 DUP1 CALLDATALOAD SWAP1 PUSH1 0x20 ADD SWAP1 SWAP3 SWAP2 SWAP1 POP POP POP PUSH2 0x10E JUMP JUMPDEST PUSH1 0x40 MLOAD DUP1 DUP3 DUP2 MSTORE PUSH1 0x20 ADD SWAP2 POP POP PUSH1 0x40 MLOAD DUP1 SWAP2 SUB SWAP1 RETURN JUMPDEST PUSH1 0x0 DUP1 DUP4 EQ DUP1 PUSH2 0xF4 JUMPI POP PUSH1 0x0 DUP3 EQ JUMPDEST ISZERO PUSH2 0x102 JUMPI PUSH1 0x0 SWAP1 POP PUSH2 0x108 JUMP JUMPDEST DUP2 DUP4 MUL SWAP1 POP JUMPDEST SWAP3 SWAP2 POP POP JUMP JUMPDEST PUSH1 0x0 DUP1 DUP3 GT ISZERO ISZERO PUSH2 0x187 JUMPI PUSH1 0x40 MLOAD PUSH32 0x8C379A000000000000000000000000000000000000000000000000000000000 DUP2 MSTORE PUSH1 0x4 ADD DUP1 DUP1 PUSH1 0x20 ADD DUP3 DUP2 SUB DUP3 MSTORE PUSH1 0x18 DUP2 MSTORE PUSH1 0x20 ADD DUP1 PUSH32 0x4E6F20706F64656D6F73206469766964697220706F7220300000000000000000 DUP2 MSTORE POP PUSH1 0x20 ADD SWAP2 POP POP PUSH1 0x40 MLOAD DUP1 SWAP2 SUB SWAP1 REVERT JUMPDEST DUP2 DUP4 DUP2 ISZERO ISZERO PUSH2 0x192 JUMPI INVALID JUMPDEST DIV SWAP1 POP SWAP3 SWAP2 POP POP JUMP STOP LOG1 PUSH6 0x627A7A723058 KECCAK256 REVERT 0xc 0xb5 DUP13 PUSH13 0x9672A9E02674F0AB2CF4B8AB2 SWAP4 0x1e CALLCODE KECCAK256 0xb9 0x28 BALANCE 0xc2 PUSH22 0x7E0DAC139A0029000000000000000000000000000000 "
		},
		"gasEstimates": {
			"creation": {
				"codeDepositCost": "91000",
				"executionCost": "188",
				"totalCost": "91188"
			},
			"external": {
				"division(uint256,uint256)": "367",
				"multiplicacion(uint256,uint256)": "341"
			}
		},
		"methodIdentifiers": {
			"division(uint256,uint256)": "e0068052",
			"multiplicacion(uint256,uint256)": "d17fb9ea"
		}
	},
	"abi": [
		{
			"constant": true,
			"inputs": [
				{
					"name": "_i",
					"type": "uint256"
				},
				{
					"name": "_j",
					"type": "uint256"
				}
			],
			"name": "multiplicacion",
			"outputs": [
				{
					"name": "",
					"type": "uint256"
				}
			],
			"payable": false,
			"stateMutability": "view",
			"type": "function"
		},
		{
			"constant": true,
			"inputs": [
				{
					"name": "_i",
					"type": "uint256"
				},
				{
					"name": "_j",
					"type": "uint256"
				}
			],
			"name": "division",
			"outputs": [
				{
					"name": "",
					"type": "uint256"
				}
			],
			"payable": false,
			"stateMutability": "view",
			"type": "function"
		}
	]
}