{
	"data": {
		"bytecode": {
			"linkReferences": {},
			"object": "608060405234801561001057600080fd5b5061022e806100206000396000f300608060405260043610610062576000357c0100000000000000000000000000000000000000000000000000000000900463ffffffff1680630614fd7e14610067578063c8c5f211146100a8578063eb57b482146100d3578063fa7f51fd14610102575b600080fd5b34801561007357600080fd5b5061009260048036038101908080359060200190929190505050610119565b6040518082815260200191505060405180910390f35b3480156100b457600080fd5b506100bd610192565b6040518082815260200191505060405180910390f35b3480156100df57600080fd5b506100e86101d9565b604051808215151515815260200191505060405180910390f35b34801561010e57600080fd5b506101176101f9565b005b6000806000806001850192505b6001156101875760029150600190505b82821015610168576000828481151561014b57fe5b06141561015b5760009050610168565b8180600101925050610136565b60011515811515141561017a57610187565b8280600101935050610126565b829350505050919050565b6000806000809150600190505b60648110156101d15760006002828115156101b657fe5b061415156101c45780820191505b808060010191505061019f565b819250505090565b60006005600054014210156101f157600090506101f6565b600190505b90565b426000819055505600a165627a7a723058207fa9c6c1144a582315306c376e6d40b636e6f4a6308694fb7c10cfefede8bd230029",
			"opcodes": "PUSH1 0x80 PUSH1 0x40 MSTORE CALLVALUE DUP1 ISZERO PUSH2 0x10 JUMPI PUSH1 0x0 DUP1 REVERT JUMPDEST POP PUSH2 0x22E DUP1 PUSH2 0x20 PUSH1 0x0 CODECOPY PUSH1 0x0 RETURN STOP PUSH1 0x80 PUSH1 0x40 MSTORE PUSH1 0x4 CALLDATASIZE LT PUSH2 0x62 JUMPI PUSH1 0x0 CALLDATALOAD PUSH29 0x100000000000000000000000000000000000000000000000000000000 SWAP1 DIV PUSH4 0xFFFFFFFF AND DUP1 PUSH4 0x614FD7E EQ PUSH2 0x67 JUMPI DUP1 PUSH4 0xC8C5F211 EQ PUSH2 0xA8 JUMPI DUP1 PUSH4 0xEB57B482 EQ PUSH2 0xD3 JUMPI DUP1 PUSH4 0xFA7F51FD EQ PUSH2 0x102 JUMPI JUMPDEST PUSH1 0x0 DUP1 REVERT JUMPDEST CALLVALUE DUP1 ISZERO PUSH2 0x73 JUMPI PUSH1 0x0 DUP1 REVERT JUMPDEST POP PUSH2 0x92 PUSH1 0x4 DUP1 CALLDATASIZE SUB DUP2 ADD SWAP1 DUP1 DUP1 CALLDATALOAD SWAP1 PUSH1 0x20 ADD SWAP1 SWAP3 SWAP2 SWAP1 POP POP POP PUSH2 0x119 JUMP JUMPDEST PUSH1 0x40 MLOAD DUP1 DUP3 DUP2 MSTORE PUSH1 0x20 ADD SWAP2 POP POP PUSH1 0x40 MLOAD DUP1 SWAP2 SUB SWAP1 RETURN JUMPDEST CALLVALUE DUP1 ISZERO PUSH2 0xB4 JUMPI PUSH1 0x0 DUP1 REVERT JUMPDEST POP PUSH2 0xBD PUSH2 0x192 JUMP JUMPDEST PUSH1 0x40 MLOAD DUP1 DUP3 DUP2 MSTORE PUSH1 0x20 ADD SWAP2 POP POP PUSH1 0x40 MLOAD DUP1 SWAP2 SUB SWAP1 RETURN JUMPDEST CALLVALUE DUP1 ISZERO PUSH2 0xDF JUMPI PUSH1 0x0 DUP1 REVERT JUMPDEST POP PUSH2 0xE8 PUSH2 0x1D9 JUMP JUMPDEST PUSH1 0x40 MLOAD DUP1 DUP3 ISZERO ISZERO ISZERO ISZERO DUP2 MSTORE PUSH1 0x20 ADD SWAP2 POP POP PUSH1 0x40 MLOAD DUP1 SWAP2 SUB SWAP1 RETURN JUMPDEST CALLVALUE DUP1 ISZERO PUSH2 0x10E JUMPI PUSH1 0x0 DUP1 REVERT JUMPDEST POP PUSH2 0x117 PUSH2 0x1F9 JUMP JUMPDEST STOP JUMPDEST PUSH1 0x0 DUP1 PUSH1 0x0 DUP1 PUSH1 0x1 DUP6 ADD SWAP3 POP JUMPDEST PUSH1 0x1 ISZERO PUSH2 0x187 JUMPI PUSH1 0x2 SWAP2 POP PUSH1 0x1 SWAP1 POP JUMPDEST DUP3 DUP3 LT ISZERO PUSH2 0x168 JUMPI PUSH1 0x0 DUP3 DUP5 DUP2 ISZERO ISZERO PUSH2 0x14B JUMPI INVALID JUMPDEST MOD EQ ISZERO PUSH2 0x15B JUMPI PUSH1 0x0 SWAP1 POP PUSH2 0x168 JUMP JUMPDEST DUP2 DUP1 PUSH1 0x1 ADD SWAP3 POP POP PUSH2 0x136 JUMP JUMPDEST PUSH1 0x1 ISZERO ISZERO DUP2 ISZERO ISZERO EQ ISZERO PUSH2 0x17A JUMPI PUSH2 0x187 JUMP JUMPDEST DUP3 DUP1 PUSH1 0x1 ADD SWAP4 POP POP PUSH2 0x126 JUMP JUMPDEST DUP3 SWAP4 POP POP POP POP SWAP2 SWAP1 POP JUMP JUMPDEST PUSH1 0x0 DUP1 PUSH1 0x0 DUP1 SWAP2 POP PUSH1 0x1 SWAP1 POP JUMPDEST PUSH1 0x64 DUP2 LT ISZERO PUSH2 0x1D1 JUMPI PUSH1 0x0 PUSH1 0x2 DUP3 DUP2 ISZERO ISZERO PUSH2 0x1B6 JUMPI INVALID JUMPDEST MOD EQ ISZERO ISZERO PUSH2 0x1C4 JUMPI DUP1 DUP3 ADD SWAP2 POP JUMPDEST DUP1 DUP1 PUSH1 0x1 ADD SWAP2 POP POP PUSH2 0x19F JUMP JUMPDEST DUP2 SWAP3 POP POP POP SWAP1 JUMP JUMPDEST PUSH1 0x0 PUSH1 0x5 PUSH1 0x0 SLOAD ADD TIMESTAMP LT ISZERO PUSH2 0x1F1 JUMPI PUSH1 0x0 SWAP1 POP PUSH2 0x1F6 JUMP JUMPDEST PUSH1 0x1 SWAP1 POP JUMPDEST SWAP1 JUMP JUMPDEST TIMESTAMP PUSH1 0x0 DUP2 SWAP1 SSTORE POP JUMP STOP LOG1 PUSH6 0x627A7A723058 KECCAK256 PUSH32 0xA9C6C1144A582315306C376E6D40B636E6F4A6308694FB7C10CFEFEDE8BD2300 0x29 "
		},
		"gasEstimates": {
			"creation": {
				"codeDepositCost": "111600",
				"executionCost": "159",
				"totalCost": "111759"
			},
			"external": {
				"espera()": "500",
				"fijarTiempo()": "20212",
				"siguientePrimo(uint256)": "infinite",
				"suma_impares()": "infinite"
			}
		},
		"methodIdentifiers": {
			"espera()": "eb57b482",
			"fijarTiempo()": "fa7f51fd",
			"siguientePrimo(uint256)": "0614fd7e",
			"suma_impares()": "c8c5f211"
		}
	},
	"abi": [
		{
			"constant": true,
			"inputs": [
				{
					"name": "_p",
					"type": "uint256"
				}
			],
			"name": "siguientePrimo",
			"outputs": [
				{
					"name": "",
					"type": "uint256"
				}
			],
			"payable": false,
			"stateMutability": "view",
			"type": "function"
		},
		{
			"constant": true,
			"inputs": [],
			"name": "suma_impares",
			"outputs": [
				{
					"name": "",
					"type": "uint256"
				}
			],
			"payable": false,
			"stateMutability": "view",
			"type": "function"
		},
		{
			"constant": true,
			"inputs": [],
			"name": "espera",
			"outputs": [
				{
					"name": "",
					"type": "bool"
				}
			],
			"payable": false,
			"stateMutability": "view",
			"type": "function"
		},
		{
			"constant": false,
			"inputs": [],
			"name": "fijarTiempo",
			"outputs": [],
			"payable": false,
			"stateMutability": "nonpayable",
			"type": "function"
		}
	]
}