{
	"data": {
		"bytecode": {
			"linkReferences": {},
			"object": "608060405234801561001057600080fd5b5061062d806100206000396000f300608060405260043610610062576000357c0100000000000000000000000000000000000000000000000000000000900463ffffffff1680631297814e1461006757806314d07a251461007e578063abefda81146100a7578063c355a3e5146100d0575b600080fd5b34801561007357600080fd5b5061007c6100f9565b005b34801561008a57600080fd5b506100a560048036036100a091908101906103a9565b610127565b005b3480156100b357600080fd5b506100ce60048036036100c99190810190610368565b610287565b005b3480156100dc57600080fd5b506100f760048036036100f291908101906103a9565b6102c1565b005b7f9f2c8877eeb6e22e94438633d64a43489fefb752521080a2f01e64a03feb270b60405160405180910390a1565b60008282336040516020018084805190602001908083835b602083101515610164578051825260208201915060208101905060208303925061013f565b6001836020036101000a0380198251168184511680821785525050505050509050018381526020018273ffffffffffffffffffffffffffffffffffffffff1673ffffffffffffffffffffffffffffffffffffffff166c0100000000000000000000000002815260140193505050506040516020818303038152906040526040518082805190602001908083835b60208310151561021657805182526020820191506020810190506020830392506101f1565b6001836020036101000a038019825116818451168082178552505050505050905001915050604051809103902090507fd0ff1ee28f2dbf23f694467b91653073187a19cba2610b37edd759ee2e31a8718383338460405161027a94939291906104b2565b60405180910390a1505050565b7f5007d59453ebcd951519cabd56f016d29fe2390892307189bde962ced3d34094816040516102b69190610460565b60405180910390a150565b7f7556e8345a443b754c690a14b2cd91df7aec27fbd662a660dd25d647f4732ed182826040516102f2929190610482565b60405180910390a15050565b600082601f830112151561031157600080fd5b813561032461031f8261052b565b6104fe565b9150808252602083016020830185838301111561034057600080fd5b61034b8382846105a0565b50505092915050565b60006103608235610596565b905092915050565b60006020828403121561037a57600080fd5b600082013567ffffffffffffffff81111561039457600080fd5b6103a0848285016102fe565b91505092915050565b600080604083850312156103bc57600080fd5b600083013567ffffffffffffffff8111156103d657600080fd5b6103e2858286016102fe565b92505060206103f385828601610354565b9150509250929050565b61040681610562565b82525050565b61041581610582565b82525050565b600061042682610557565b80845261043a8160208601602086016105af565b610443816105e2565b602085010191505092915050565b61045a8161058c565b82525050565b6000602082019050818103600083015261047a818461041b565b905092915050565b6000604082019050818103600083015261049c818561041b565b90506104ab6020830184610451565b9392505050565b600060808201905081810360008301526104cc818761041b565b90506104db6020830186610451565b6104e860408301856103fd565b6104f5606083018461040c565b95945050505050565b6000604051905081810181811067ffffffffffffffff8211171561052157600080fd5b8060405250919050565b600067ffffffffffffffff82111561054257600080fd5b601f19601f8301169050602081019050919050565b600081519050919050565b600073ffffffffffffffffffffffffffffffffffffffff82169050919050565b6000819050919050565b6000819050919050565b6000819050919050565b82818337600083830152505050565b60005b838110156105cd5780820151818401526020810190506105b2565b838111156105dc576000848401525b50505050565b6000601f19601f83011690509190505600a265627a7a72305820d75203f4b98c2edf4b367b8dea4661834ba3e0e282710a4e3281a15463f4cd216c6578706572696d656e74616cf50037",
			"opcodes": "PUSH1 0x80 PUSH1 0x40 MSTORE CALLVALUE DUP1 ISZERO PUSH2 0x10 JUMPI PUSH1 0x0 DUP1 REVERT JUMPDEST POP PUSH2 0x62D DUP1 PUSH2 0x20 PUSH1 0x0 CODECOPY PUSH1 0x0 RETURN STOP PUSH1 0x80 PUSH1 0x40 MSTORE PUSH1 0x4 CALLDATASIZE LT PUSH2 0x62 JUMPI PUSH1 0x0 CALLDATALOAD PUSH29 0x100000000000000000000000000000000000000000000000000000000 SWAP1 DIV PUSH4 0xFFFFFFFF AND DUP1 PUSH4 0x1297814E EQ PUSH2 0x67 JUMPI DUP1 PUSH4 0x14D07A25 EQ PUSH2 0x7E JUMPI DUP1 PUSH4 0xABEFDA81 EQ PUSH2 0xA7 JUMPI DUP1 PUSH4 0xC355A3E5 EQ PUSH2 0xD0 JUMPI JUMPDEST PUSH1 0x0 DUP1 REVERT JUMPDEST CALLVALUE DUP1 ISZERO PUSH2 0x73 JUMPI PUSH1 0x0 DUP1 REVERT JUMPDEST POP PUSH2 0x7C PUSH2 0xF9 JUMP JUMPDEST STOP JUMPDEST CALLVALUE DUP1 ISZERO PUSH2 0x8A JUMPI PUSH1 0x0 DUP1 REVERT JUMPDEST POP PUSH2 0xA5 PUSH1 0x4 DUP1 CALLDATASIZE SUB PUSH2 0xA0 SWAP2 SWAP1 DUP2 ADD SWAP1 PUSH2 0x3A9 JUMP JUMPDEST PUSH2 0x127 JUMP JUMPDEST STOP JUMPDEST CALLVALUE DUP1 ISZERO PUSH2 0xB3 JUMPI PUSH1 0x0 DUP1 REVERT JUMPDEST POP PUSH2 0xCE PUSH1 0x4 DUP1 CALLDATASIZE SUB PUSH2 0xC9 SWAP2 SWAP1 DUP2 ADD SWAP1 PUSH2 0x368 JUMP JUMPDEST PUSH2 0x287 JUMP JUMPDEST STOP JUMPDEST CALLVALUE DUP1 ISZERO PUSH2 0xDC JUMPI PUSH1 0x0 DUP1 REVERT JUMPDEST POP PUSH2 0xF7 PUSH1 0x4 DUP1 CALLDATASIZE SUB PUSH2 0xF2 SWAP2 SWAP1 DUP2 ADD SWAP1 PUSH2 0x3A9 JUMP JUMPDEST PUSH2 0x2C1 JUMP JUMPDEST STOP JUMPDEST PUSH32 0x9F2C8877EEB6E22E94438633D64A43489FEFB752521080A2F01E64A03FEB270B PUSH1 0x40 MLOAD PUSH1 0x40 MLOAD DUP1 SWAP2 SUB SWAP1 LOG1 JUMP JUMPDEST PUSH1 0x0 DUP3 DUP3 CALLER PUSH1 0x40 MLOAD PUSH1 0x20 ADD DUP1 DUP5 DUP1 MLOAD SWAP1 PUSH1 0x20 ADD SWAP1 DUP1 DUP4 DUP4 JUMPDEST PUSH1 0x20 DUP4 LT ISZERO ISZERO PUSH2 0x164 JUMPI DUP1 MLOAD DUP3 MSTORE PUSH1 0x20 DUP3 ADD SWAP2 POP PUSH1 0x20 DUP2 ADD SWAP1 POP PUSH1 0x20 DUP4 SUB SWAP3 POP PUSH2 0x13F JUMP JUMPDEST PUSH1 0x1 DUP4 PUSH1 0x20 SUB PUSH2 0x100 EXP SUB DUP1 NOT DUP3 MLOAD AND DUP2 DUP5 MLOAD AND DUP1 DUP3 OR DUP6 MSTORE POP POP POP POP POP POP SWAP1 POP ADD DUP4 DUP2 MSTORE PUSH1 0x20 ADD DUP3 PUSH20 0xFFFFFFFFFFFFFFFFFFFFFFFFFFFFFFFFFFFFFFFF AND PUSH20 0xFFFFFFFFFFFFFFFFFFFFFFFFFFFFFFFFFFFFFFFF AND PUSH13 0x1000000000000000000000000 MUL DUP2 MSTORE PUSH1 0x14 ADD SWAP4 POP POP POP POP PUSH1 0x40 MLOAD PUSH1 0x20 DUP2 DUP4 SUB SUB DUP2 MSTORE SWAP1 PUSH1 0x40 MSTORE PUSH1 0x40 MLOAD DUP1 DUP3 DUP1 MLOAD SWAP1 PUSH1 0x20 ADD SWAP1 DUP1 DUP4 DUP4 JUMPDEST PUSH1 0x20 DUP4 LT ISZERO ISZERO PUSH2 0x216 JUMPI DUP1 MLOAD DUP3 MSTORE PUSH1 0x20 DUP3 ADD SWAP2 POP PUSH1 0x20 DUP2 ADD SWAP1 POP PUSH1 0x20 DUP4 SUB SWAP3 POP PUSH2 0x1F1 JUMP JUMPDEST PUSH1 0x1 DUP4 PUSH1 0x20 SUB PUSH2 0x100 EXP SUB DUP1 NOT DUP3 MLOAD AND DUP2 DUP5 MLOAD AND DUP1 DUP3 OR DUP6 MSTORE POP POP POP POP POP POP SWAP1 POP ADD SWAP2 POP POP PUSH1 0x40 MLOAD DUP1 SWAP2 SUB SWAP1 KECCAK256 SWAP1 POP PUSH32 0xD0FF1EE28F2DBF23F694467B91653073187A19CBA2610B37EDD759EE2E31A871 DUP4 DUP4 CALLER DUP5 PUSH1 0x40 MLOAD PUSH2 0x27A SWAP5 SWAP4 SWAP3 SWAP2 SWAP1 PUSH2 0x4B2 JUMP JUMPDEST PUSH1 0x40 MLOAD DUP1 SWAP2 SUB SWAP1 LOG1 POP POP POP JUMP JUMPDEST PUSH32 0x5007D59453EBCD951519CABD56F016D29FE2390892307189BDE962CED3D34094 DUP2 PUSH1 0x40 MLOAD PUSH2 0x2B6 SWAP2 SWAP1 PUSH2 0x460 JUMP JUMPDEST PUSH1 0x40 MLOAD DUP1 SWAP2 SUB SWAP1 LOG1 POP JUMP JUMPDEST PUSH32 0x7556E8345A443B754C690A14B2CD91DF7AEC27FBD662A660DD25D647F4732ED1 DUP3 DUP3 PUSH1 0x40 MLOAD PUSH2 0x2F2 SWAP3 SWAP2 SWAP1 PUSH2 0x482 JUMP JUMPDEST PUSH1 0x40 MLOAD DUP1 SWAP2 SUB SWAP1 LOG1 POP POP JUMP JUMPDEST PUSH1 0x0 DUP3 PUSH1 0x1F DUP4 ADD SLT ISZERO ISZERO PUSH2 0x311 JUMPI PUSH1 0x0 DUP1 REVERT JUMPDEST DUP2 CALLDATALOAD PUSH2 0x324 PUSH2 0x31F DUP3 PUSH2 0x52B JUMP JUMPDEST PUSH2 0x4FE JUMP JUMPDEST SWAP2 POP DUP1 DUP3 MSTORE PUSH1 0x20 DUP4 ADD PUSH1 0x20 DUP4 ADD DUP6 DUP4 DUP4 ADD GT ISZERO PUSH2 0x340 JUMPI PUSH1 0x0 DUP1 REVERT JUMPDEST PUSH2 0x34B DUP4 DUP3 DUP5 PUSH2 0x5A0 JUMP JUMPDEST POP POP POP SWAP3 SWAP2 POP POP JUMP JUMPDEST PUSH1 0x0 PUSH2 0x360 DUP3 CALLDATALOAD PUSH2 0x596 JUMP JUMPDEST SWAP1 POP SWAP3 SWAP2 POP POP JUMP JUMPDEST PUSH1 0x0 PUSH1 0x20 DUP3 DUP5 SUB SLT ISZERO PUSH2 0x37A JUMPI PUSH1 0x0 DUP1 REVERT JUMPDEST PUSH1 0x0 DUP3 ADD CALLDATALOAD PUSH8 0xFFFFFFFFFFFFFFFF DUP2 GT ISZERO PUSH2 0x394 JUMPI PUSH1 0x0 DUP1 REVERT JUMPDEST PUSH2 0x3A0 DUP5 DUP3 DUP6 ADD PUSH2 0x2FE JUMP JUMPDEST SWAP2 POP POP SWAP3 SWAP2 POP POP JUMP JUMPDEST PUSH1 0x0 DUP1 PUSH1 0x40 DUP4 DUP6 SUB SLT ISZERO PUSH2 0x3BC JUMPI PUSH1 0x0 DUP1 REVERT JUMPDEST PUSH1 0x0 DUP4 ADD CALLDATALOAD PUSH8 0xFFFFFFFFFFFFFFFF DUP2 GT ISZERO PUSH2 0x3D6 JUMPI PUSH1 0x0 DUP1 REVERT JUMPDEST PUSH2 0x3E2 DUP6 DUP3 DUP7 ADD PUSH2 0x2FE JUMP JUMPDEST SWAP3 POP POP PUSH1 0x20 PUSH2 0x3F3 DUP6 DUP3 DUP7 ADD PUSH2 0x354 JUMP JUMPDEST SWAP2 POP POP SWAP3 POP SWAP3 SWAP1 POP JUMP JUMPDEST PUSH2 0x406 DUP2 PUSH2 0x562 JUMP JUMPDEST DUP3 MSTORE POP POP JUMP JUMPDEST PUSH2 0x415 DUP2 PUSH2 0x582 JUMP JUMPDEST DUP3 MSTORE POP POP JUMP JUMPDEST PUSH1 0x0 PUSH2 0x426 DUP3 PUSH2 0x557 JUMP JUMPDEST DUP1 DUP5 MSTORE PUSH2 0x43A DUP2 PUSH1 0x20 DUP7 ADD PUSH1 0x20 DUP7 ADD PUSH2 0x5AF JUMP JUMPDEST PUSH2 0x443 DUP2 PUSH2 0x5E2 JUMP JUMPDEST PUSH1 0x20 DUP6 ADD ADD SWAP2 POP POP SWAP3 SWAP2 POP POP JUMP JUMPDEST PUSH2 0x45A DUP2 PUSH2 0x58C JUMP JUMPDEST DUP3 MSTORE POP POP JUMP JUMPDEST PUSH1 0x0 PUSH1 0x20 DUP3 ADD SWAP1 POP DUP2 DUP2 SUB PUSH1 0x0 DUP4 ADD MSTORE PUSH2 0x47A DUP2 DUP5 PUSH2 0x41B JUMP JUMPDEST SWAP1 POP SWAP3 SWAP2 POP POP JUMP JUMPDEST PUSH1 0x0 PUSH1 0x40 DUP3 ADD SWAP1 POP DUP2 DUP2 SUB PUSH1 0x0 DUP4 ADD MSTORE PUSH2 0x49C DUP2 DUP6 PUSH2 0x41B JUMP JUMPDEST SWAP1 POP PUSH2 0x4AB PUSH1 0x20 DUP4 ADD DUP5 PUSH2 0x451 JUMP JUMPDEST SWAP4 SWAP3 POP POP POP JUMP JUMPDEST PUSH1 0x0 PUSH1 0x80 DUP3 ADD SWAP1 POP DUP2 DUP2 SUB PUSH1 0x0 DUP4 ADD MSTORE PUSH2 0x4CC DUP2 DUP8 PUSH2 0x41B JUMP JUMPDEST SWAP1 POP PUSH2 0x4DB PUSH1 0x20 DUP4 ADD DUP7 PUSH2 0x451 JUMP JUMPDEST PUSH2 0x4E8 PUSH1 0x40 DUP4 ADD DUP6 PUSH2 0x3FD JUMP JUMPDEST PUSH2 0x4F5 PUSH1 0x60 DUP4 ADD DUP5 PUSH2 0x40C JUMP JUMPDEST SWAP6 SWAP5 POP POP POP POP POP JUMP JUMPDEST PUSH1 0x0 PUSH1 0x40 MLOAD SWAP1 POP DUP2 DUP2 ADD DUP2 DUP2 LT PUSH8 0xFFFFFFFFFFFFFFFF DUP3 GT OR ISZERO PUSH2 0x521 JUMPI PUSH1 0x0 DUP1 REVERT JUMPDEST DUP1 PUSH1 0x40 MSTORE POP SWAP2 SWAP1 POP JUMP JUMPDEST PUSH1 0x0 PUSH8 0xFFFFFFFFFFFFFFFF DUP3 GT ISZERO PUSH2 0x542 JUMPI PUSH1 0x0 DUP1 REVERT JUMPDEST PUSH1 0x1F NOT PUSH1 0x1F DUP4 ADD AND SWAP1 POP PUSH1 0x20 DUP2 ADD SWAP1 POP SWAP2 SWAP1 POP JUMP JUMPDEST PUSH1 0x0 DUP2 MLOAD SWAP1 POP SWAP2 SWAP1 POP JUMP JUMPDEST PUSH1 0x0 PUSH20 0xFFFFFFFFFFFFFFFFFFFFFFFFFFFFFFFFFFFFFFFF DUP3 AND SWAP1 POP SWAP2 SWAP1 POP JUMP JUMPDEST PUSH1 0x0 DUP2 SWAP1 POP SWAP2 SWAP1 POP JUMP JUMPDEST PUSH1 0x0 DUP2 SWAP1 POP SWAP2 SWAP1 POP JUMP JUMPDEST PUSH1 0x0 DUP2 SWAP1 POP SWAP2 SWAP1 POP JUMP JUMPDEST DUP3 DUP2 DUP4 CALLDATACOPY PUSH1 0x0 DUP4 DUP4 ADD MSTORE POP POP POP JUMP JUMPDEST PUSH1 0x0 JUMPDEST DUP4 DUP2 LT ISZERO PUSH2 0x5CD JUMPI DUP1 DUP3 ADD MLOAD DUP2 DUP5 ADD MSTORE PUSH1 0x20 DUP2 ADD SWAP1 POP PUSH2 0x5B2 JUMP JUMPDEST DUP4 DUP2 GT ISZERO PUSH2 0x5DC JUMPI PUSH1 0x0 DUP5 DUP5 ADD MSTORE JUMPDEST POP POP POP POP JUMP JUMPDEST PUSH1 0x0 PUSH1 0x1F NOT PUSH1 0x1F DUP4 ADD AND SWAP1 POP SWAP2 SWAP1 POP JUMP STOP LOG2 PUSH6 0x627A7A723058 KECCAK256 0xd7 MSTORE SUB DELEGATECALL 0xb9 DUP13 0x2e 0xdf 0x4b CALLDATASIZE PUSH28 0x8DEA4661834BA3E0E282710A4E3281A15463F4CD216C657870657269 PUSH14 0x656E74616CF50037000000000000 "
		},
		"gasEstimates": {
			"creation": {
				"codeDepositCost": "316200",
				"executionCost": "355",
				"totalCost": "316555"
			},
			"external": {
				"AbortarMision()": "910",
				"EmitirEvento1(string)": "infinite",
				"EmitirEvento2(string,uint256)": "infinite",
				"EmitirEvento3(string,uint256)": "infinite"
			}
		},
		"methodIdentifiers": {
			"AbortarMision()": "1297814e",
			"EmitirEvento1(string)": "abefda81",
			"EmitirEvento2(string,uint256)": "c355a3e5",
			"EmitirEvento3(string,uint256)": "14d07a25"
		}
	},
	"abi": [
		{
			"constant": false,
			"inputs": [],
			"name": "AbortarMision",
			"outputs": [],
			"payable": false,
			"stateMutability": "nonpayable",
			"type": "function"
		},
		{
			"constant": false,
			"inputs": [
				{
					"name": "_nombrePersona",
					"type": "string"
				},
				{
					"name": "_edad",
					"type": "uint256"
				}
			],
			"name": "EmitirEvento3",
			"outputs": [],
			"payable": false,
			"stateMutability": "nonpayable",
			"type": "function"
		},
		{
			"constant": false,
			"inputs": [
				{
					"name": "_nombrePersona",
					"type": "string"
				}
			],
			"name": "EmitirEvento1",
			"outputs": [],
			"payable": false,
			"stateMutability": "nonpayable",
			"type": "function"
		},
		{
			"constant": false,
			"inputs": [
				{
					"name": "_nombrePersona",
					"type": "string"
				},
				{
					"name": "_edad",
					"type": "uint256"
				}
			],
			"name": "EmitirEvento2",
			"outputs": [],
			"payable": false,
			"stateMutability": "nonpayable",
			"type": "function"
		},
		{
			"anonymous": false,
			"inputs": [
				{
					"indexed": false,
					"name": "_nombrePersona",
					"type": "string"
				}
			],
			"name": "nombre_evento1",
			"type": "event"
		},
		{
			"anonymous": false,
			"inputs": [
				{
					"indexed": false,
					"name": "_nombrePersona",
					"type": "string"
				},
				{
					"indexed": false,
					"name": "_edadPersona",
					"type": "uint256"
				}
			],
			"name": "nombre_evento2",
			"type": "event"
		},
		{
			"anonymous": false,
			"inputs": [
				{
					"indexed": false,
					"name": "",
					"type": "string"
				},
				{
					"indexed": false,
					"name": "",
					"type": "uint256"
				},
				{
					"indexed": false,
					"name": "",
					"type": "address"
				},
				{
					"indexed": false,
					"name": "",
					"type": "bytes32"
				}
			],
			"name": "nombre_evento3",
			"type": "event"
		},
		{
			"anonymous": false,
			"inputs": [],
			"name": "abortarmision",
			"type": "event"
		}
	]
}