{
	"data": {
		"bytecode": {
			"linkReferences": {},
			"object": "608060405260008060016101000a81548160ff0219169083600381111561002257fe5b021790555034801561003357600080fd5b50610352806100436000396000f300608060405260043610610099576000357c0100000000000000000000000000000000000000000000000000000000900463ffffffff16806339feafa31461009e5780638a60839f146100d7578063943fad7f146100ee578063b1e9224714610105578063b46e8d1a14610132578063daf4343f1461016b578063e0be4a2e14610182578063e7260f9a146101af578063e9073c33146101c6575b600080fd5b3480156100aa57600080fd5b506100b36101dd565b604051808260038111156100c357fe5b60ff16815260200191505060405180910390f35b3480156100e357600080fd5b506100ec6101f3565b005b3480156100fa57600080fd5b50610103610219565b005b34801561011157600080fd5b506101306004803603810190808035906020019092919050505061023f565b005b34801561013e57600080fd5b50610147610270565b6040518082600181111561015757fe5b60ff16815260200191505060405180910390f35b34801561017757600080fd5b50610180610286565b005b34801561018e57600080fd5b506101ad600480360381019080803590602001909291905050506102ac565b005b3480156101bb57600080fd5b506101c46102dc565b005b3480156101d257600080fd5b506101db610301565b005b60008060019054906101000a900460ff16905090565b6002600060016101000a81548160ff0219169083600381111561021257fe5b0217905550565b6003600060016101000a81548160ff0219169083600381111561023857fe5b0217905550565b80600381111561024b57fe5b600060016101000a81548160ff0219169083600381111561026857fe5b021790555050565b60008060009054906101000a900460ff16905090565b6001600060016101000a81548160ff021916908360038111156102a557fe5b0217905550565b8060018111156102b857fe5b6000806101000a81548160ff021916908360018111156102d457fe5b021790555050565b60008060016101000a81548160ff021916908360038111156102fa57fe5b0217905550565b60008060006101000a81548160ff0219169083600181111561031f57fe5b02179055505600a165627a7a72305820616028b39ee9642fac62a801f49cf85d2d8f60db0a78399e4d30f3945b19f70c0029",
			"opcodes": "PUSH1 0x80 PUSH1 0x40 MSTORE PUSH1 0x0 DUP1 PUSH1 0x1 PUSH2 0x100 EXP DUP2 SLOAD DUP2 PUSH1 0xFF MUL NOT AND SWAP1 DUP4 PUSH1 0x3 DUP2 GT ISZERO PUSH2 0x22 JUMPI INVALID JUMPDEST MUL OR SWAP1 SSTORE POP CALLVALUE DUP1 ISZERO PUSH2 0x33 JUMPI PUSH1 0x0 DUP1 REVERT JUMPDEST POP PUSH2 0x352 DUP1 PUSH2 0x43 PUSH1 0x0 CODECOPY PUSH1 0x0 RETURN STOP PUSH1 0x80 PUSH1 0x40 MSTORE PUSH1 0x4 CALLDATASIZE LT PUSH2 0x99 JUMPI PUSH1 0x0 CALLDATALOAD PUSH29 0x100000000000000000000000000000000000000000000000000000000 SWAP1 DIV PUSH4 0xFFFFFFFF AND DUP1 PUSH4 0x39FEAFA3 EQ PUSH2 0x9E JUMPI DUP1 PUSH4 0x8A60839F EQ PUSH2 0xD7 JUMPI DUP1 PUSH4 0x943FAD7F EQ PUSH2 0xEE JUMPI DUP1 PUSH4 0xB1E92247 EQ PUSH2 0x105 JUMPI DUP1 PUSH4 0xB46E8D1A EQ PUSH2 0x132 JUMPI DUP1 PUSH4 0xDAF4343F EQ PUSH2 0x16B JUMPI DUP1 PUSH4 0xE0BE4A2E EQ PUSH2 0x182 JUMPI DUP1 PUSH4 0xE7260F9A EQ PUSH2 0x1AF JUMPI DUP1 PUSH4 0xE9073C33 EQ PUSH2 0x1C6 JUMPI JUMPDEST PUSH1 0x0 DUP1 REVERT JUMPDEST CALLVALUE DUP1 ISZERO PUSH2 0xAA JUMPI PUSH1 0x0 DUP1 REVERT JUMPDEST POP PUSH2 0xB3 PUSH2 0x1DD JUMP JUMPDEST PUSH1 0x40 MLOAD DUP1 DUP3 PUSH1 0x3 DUP2 GT ISZERO PUSH2 0xC3 JUMPI INVALID JUMPDEST PUSH1 0xFF AND DUP2 MSTORE PUSH1 0x20 ADD SWAP2 POP POP PUSH1 0x40 MLOAD DUP1 SWAP2 SUB SWAP1 RETURN JUMPDEST CALLVALUE DUP1 ISZERO PUSH2 0xE3 JUMPI PUSH1 0x0 DUP1 REVERT JUMPDEST POP PUSH2 0xEC PUSH2 0x1F3 JUMP JUMPDEST STOP JUMPDEST CALLVALUE DUP1 ISZERO PUSH2 0xFA JUMPI PUSH1 0x0 DUP1 REVERT JUMPDEST POP PUSH2 0x103 PUSH2 0x219 JUMP JUMPDEST STOP JUMPDEST CALLVALUE DUP1 ISZERO PUSH2 0x111 JUMPI PUSH1 0x0 DUP1 REVERT JUMPDEST POP PUSH2 0x130 PUSH1 0x4 DUP1 CALLDATASIZE SUB DUP2 ADD SWAP1 DUP1 DUP1 CALLDATALOAD SWAP1 PUSH1 0x20 ADD SWAP1 SWAP3 SWAP2 SWAP1 POP POP POP PUSH2 0x23F JUMP JUMPDEST STOP JUMPDEST CALLVALUE DUP1 ISZERO PUSH2 0x13E JUMPI PUSH1 0x0 DUP1 REVERT JUMPDEST POP PUSH2 0x147 PUSH2 0x270 JUMP JUMPDEST PUSH1 0x40 MLOAD DUP1 DUP3 PUSH1 0x1 DUP2 GT ISZERO PUSH2 0x157 JUMPI INVALID JUMPDEST PUSH1 0xFF AND DUP2 MSTORE PUSH1 0x20 ADD SWAP2 POP POP PUSH1 0x40 MLOAD DUP1 SWAP2 SUB SWAP1 RETURN JUMPDEST CALLVALUE DUP1 ISZERO PUSH2 0x177 JUMPI PUSH1 0x0 DUP1 REVERT JUMPDEST POP PUSH2 0x180 PUSH2 0x286 JUMP JUMPDEST STOP JUMPDEST CALLVALUE DUP1 ISZERO PUSH2 0x18E JUMPI PUSH1 0x0 DUP1 REVERT JUMPDEST POP PUSH2 0x1AD PUSH1 0x4 DUP1 CALLDATASIZE SUB DUP2 ADD SWAP1 DUP1 DUP1 CALLDATALOAD SWAP1 PUSH1 0x20 ADD SWAP1 SWAP3 SWAP2 SWAP1 POP POP POP PUSH2 0x2AC JUMP JUMPDEST STOP JUMPDEST CALLVALUE DUP1 ISZERO PUSH2 0x1BB JUMPI PUSH1 0x0 DUP1 REVERT JUMPDEST POP PUSH2 0x1C4 PUSH2 0x2DC JUMP JUMPDEST STOP JUMPDEST CALLVALUE DUP1 ISZERO PUSH2 0x1D2 JUMPI PUSH1 0x0 DUP1 REVERT JUMPDEST POP PUSH2 0x1DB PUSH2 0x301 JUMP JUMPDEST STOP JUMPDEST PUSH1 0x0 DUP1 PUSH1 0x1 SWAP1 SLOAD SWAP1 PUSH2 0x100 EXP SWAP1 DIV PUSH1 0xFF AND SWAP1 POP SWAP1 JUMP JUMPDEST PUSH1 0x2 PUSH1 0x0 PUSH1 0x1 PUSH2 0x100 EXP DUP2 SLOAD DUP2 PUSH1 0xFF MUL NOT AND SWAP1 DUP4 PUSH1 0x3 DUP2 GT ISZERO PUSH2 0x212 JUMPI INVALID JUMPDEST MUL OR SWAP1 SSTORE POP JUMP JUMPDEST PUSH1 0x3 PUSH1 0x0 PUSH1 0x1 PUSH2 0x100 EXP DUP2 SLOAD DUP2 PUSH1 0xFF MUL NOT AND SWAP1 DUP4 PUSH1 0x3 DUP2 GT ISZERO PUSH2 0x238 JUMPI INVALID JUMPDEST MUL OR SWAP1 SSTORE POP JUMP JUMPDEST DUP1 PUSH1 0x3 DUP2 GT ISZERO PUSH2 0x24B JUMPI INVALID JUMPDEST PUSH1 0x0 PUSH1 0x1 PUSH2 0x100 EXP DUP2 SLOAD DUP2 PUSH1 0xFF MUL NOT AND SWAP1 DUP4 PUSH1 0x3 DUP2 GT ISZERO PUSH2 0x268 JUMPI INVALID JUMPDEST MUL OR SWAP1 SSTORE POP POP JUMP JUMPDEST PUSH1 0x0 DUP1 PUSH1 0x0 SWAP1 SLOAD SWAP1 PUSH2 0x100 EXP SWAP1 DIV PUSH1 0xFF AND SWAP1 POP SWAP1 JUMP JUMPDEST PUSH1 0x1 PUSH1 0x0 PUSH1 0x1 PUSH2 0x100 EXP DUP2 SLOAD DUP2 PUSH1 0xFF MUL NOT AND SWAP1 DUP4 PUSH1 0x3 DUP2 GT ISZERO PUSH2 0x2A5 JUMPI INVALID JUMPDEST MUL OR SWAP1 SSTORE POP JUMP JUMPDEST DUP1 PUSH1 0x1 DUP2 GT ISZERO PUSH2 0x2B8 JUMPI INVALID JUMPDEST PUSH1 0x0 DUP1 PUSH2 0x100 EXP DUP2 SLOAD DUP2 PUSH1 0xFF MUL NOT AND SWAP1 DUP4 PUSH1 0x1 DUP2 GT ISZERO PUSH2 0x2D4 JUMPI INVALID JUMPDEST MUL OR SWAP1 SSTORE POP POP JUMP JUMPDEST PUSH1 0x0 DUP1 PUSH1 0x1 PUSH2 0x100 EXP DUP2 SLOAD DUP2 PUSH1 0xFF MUL NOT AND SWAP1 DUP4 PUSH1 0x3 DUP2 GT ISZERO PUSH2 0x2FA JUMPI INVALID JUMPDEST MUL OR SWAP1 SSTORE POP JUMP JUMPDEST PUSH1 0x0 DUP1 PUSH1 0x0 PUSH2 0x100 EXP DUP2 SLOAD DUP2 PUSH1 0xFF MUL NOT AND SWAP1 DUP4 PUSH1 0x1 DUP2 GT ISZERO PUSH2 0x31F JUMPI INVALID JUMPDEST MUL OR SWAP1 SSTORE POP JUMP STOP LOG1 PUSH6 0x627A7A723058 KECCAK256 PUSH2 0x6028 0xb3 SWAP15 0xe9 PUSH5 0x2FAC62A801 DELEGATECALL SWAP13 0xf8 0x5d 0x2d DUP16 PUSH1 0xDB EXP PUSH25 0x399E4D30F3945B19F70C002900000000000000000000000000 "
		},
		"gasEstimates": {
			"creation": {
				"codeDepositCost": "170000",
				"executionCost": "20551",
				"totalCost": "190551"
			},
			"external": {
				"Direcciones()": "520",
				"Estado()": "558",
				"abajo()": "20580",
				"arriba()": "20624",
				"derecha()": "20492",
				"encender()": "20596",
				"fijarDirecciones(uint256)": "20620",
				"fijarEstado(uint256)": "20636",
				"izquierda()": "20514"
			}
		},
		"methodIdentifiers": {
			"Direcciones()": "39feafa3",
			"Estado()": "b46e8d1a",
			"abajo()": "daf4343f",
			"arriba()": "e7260f9a",
			"derecha()": "8a60839f",
			"encender()": "e9073c33",
			"fijarDirecciones(uint256)": "b1e92247",
			"fijarEstado(uint256)": "e0be4a2e",
			"izquierda()": "943fad7f"
		}
	},
	"abi": [
		{
			"constant": true,
			"inputs": [],
			"name": "Direcciones",
			"outputs": [
				{
					"name": "",
					"type": "uint8"
				}
			],
			"payable": false,
			"stateMutability": "view",
			"type": "function"
		},
		{
			"constant": false,
			"inputs": [],
			"name": "derecha",
			"outputs": [],
			"payable": false,
			"stateMutability": "nonpayable",
			"type": "function"
		},
		{
			"constant": false,
			"inputs": [],
			"name": "izquierda",
			"outputs": [],
			"payable": false,
			"stateMutability": "nonpayable",
			"type": "function"
		},
		{
			"constant": false,
			"inputs": [
				{
					"name": "_k",
					"type": "uint256"
				}
			],
			"name": "fijarDirecciones",
			"outputs": [],
			"payable": false,
			"stateMutability": "nonpayable",
			"type": "function"
		},
		{
			"constant": true,
			"inputs": [],
			"name": "Estado",
			"outputs": [
				{
					"name": "",
					"type": "uint8"
				}
			],
			"payable": false,
			"stateMutability": "view",
			"type": "function"
		},
		{
			"constant": false,
			"inputs": [],
			"name": "abajo",
			"outputs": [],
			"payable": false,
			"stateMutability": "nonpayable",
			"type": "function"
		},
		{
			"constant": false,
			"inputs": [
				{
					"name": "_k",
					"type": "uint256"
				}
			],
			"name": "fijarEstado",
			"outputs": [],
			"payable": false,
			"stateMutability": "nonpayable",
			"type": "function"
		},
		{
			"constant": false,
			"inputs": [],
			"name": "arriba",
			"outputs": [],
			"payable": false,
			"stateMutability": "nonpayable",
			"type": "function"
		},
		{
			"constant": false,
			"inputs": [],
			"name": "encender",
			"outputs": [],
			"payable": false,
			"stateMutability": "nonpayable",
			"type": "function"
		}
	]
}