{
	"data": {
		"bytecode": {
			"linkReferences": {},
			"object": "608060405242600055603c600155611c206002556241eb0060035562093a8060045534801561002d57600080fd5b5061029c8061003d6000396000f300608060405260043610610099576000357c0100000000000000000000000000000000000000000000000000000000900463ffffffff16806301a348751461009e578063108c4abb146100c9578063172f11fc146100f4578063183289fc1461011f5780631fd8d6b41461014a5780634f0cea83146101755780635a9606a4146101a0578063d2c5381a146101cb578063e8b1ed29146101f6575b600080fd5b3480156100aa57600080fd5b506100b3610221565b6040518082815260200191505060405180910390f35b3480156100d557600080fd5b506100de61022c565b6040518082815260200191505060405180910390f35b34801561010057600080fd5b50610109610238565b6040518082815260200191505060405180910390f35b34801561012b57600080fd5b5061013461023e565b6040518082815260200191505060405180910390f35b34801561015657600080fd5b5061015f610244565b6040518082815260200191505060405180910390f35b34801561018157600080fd5b5061018a610251565b6040518082815260200191505060405180910390f35b3480156101ac57600080fd5b506101b5610257565b6040518082815260200191505060405180910390f35b3480156101d757600080fd5b506101e061025d565b6040518082815260200191505060405180910390f35b34801561020257600080fd5b5061020b61026a565b6040518082815260200191505060405180910390f35b600060324201905090565b6000610e104201905090565b60015481565b60045481565b600062093a804201905090565b60035481565b60005481565b60006203f4804201905090565b600254815600a165627a7a72305820008026d029e73d10f5dd848cc4e8211a032de084108e742040ebd5e9a49b17df0029",
			"opcodes": "PUSH1 0x80 PUSH1 0x40 MSTORE TIMESTAMP PUSH1 0x0 SSTORE PUSH1 0x3C PUSH1 0x1 SSTORE PUSH2 0x1C20 PUSH1 0x2 SSTORE PUSH3 0x41EB00 PUSH1 0x3 SSTORE PUSH3 0x93A80 PUSH1 0x4 SSTORE CALLVALUE DUP1 ISZERO PUSH2 0x2D JUMPI PUSH1 0x0 DUP1 REVERT JUMPDEST POP PUSH2 0x29C DUP1 PUSH2 0x3D PUSH1 0x0 CODECOPY PUSH1 0x0 RETURN STOP PUSH1 0x80 PUSH1 0x40 MSTORE PUSH1 0x4 CALLDATASIZE LT PUSH2 0x99 JUMPI PUSH1 0x0 CALLDATALOAD PUSH29 0x100000000000000000000000000000000000000000000000000000000 SWAP1 DIV PUSH4 0xFFFFFFFF AND DUP1 PUSH4 0x1A34875 EQ PUSH2 0x9E JUMPI DUP1 PUSH4 0x108C4ABB EQ PUSH2 0xC9 JUMPI DUP1 PUSH4 0x172F11FC EQ PUSH2 0xF4 JUMPI DUP1 PUSH4 0x183289FC EQ PUSH2 0x11F JUMPI DUP1 PUSH4 0x1FD8D6B4 EQ PUSH2 0x14A JUMPI DUP1 PUSH4 0x4F0CEA83 EQ PUSH2 0x175 JUMPI DUP1 PUSH4 0x5A9606A4 EQ PUSH2 0x1A0 JUMPI DUP1 PUSH4 0xD2C5381A EQ PUSH2 0x1CB JUMPI DUP1 PUSH4 0xE8B1ED29 EQ PUSH2 0x1F6 JUMPI JUMPDEST PUSH1 0x0 DUP1 REVERT JUMPDEST CALLVALUE DUP1 ISZERO PUSH2 0xAA JUMPI PUSH1 0x0 DUP1 REVERT JUMPDEST POP PUSH2 0xB3 PUSH2 0x221 JUMP JUMPDEST PUSH1 0x40 MLOAD DUP1 DUP3 DUP2 MSTORE PUSH1 0x20 ADD SWAP2 POP POP PUSH1 0x40 MLOAD DUP1 SWAP2 SUB SWAP1 RETURN JUMPDEST CALLVALUE DUP1 ISZERO PUSH2 0xD5 JUMPI PUSH1 0x0 DUP1 REVERT JUMPDEST POP PUSH2 0xDE PUSH2 0x22C JUMP JUMPDEST PUSH1 0x40 MLOAD DUP1 DUP3 DUP2 MSTORE PUSH1 0x20 ADD SWAP2 POP POP PUSH1 0x40 MLOAD DUP1 SWAP2 SUB SWAP1 RETURN JUMPDEST CALLVALUE DUP1 ISZERO PUSH2 0x100 JUMPI PUSH1 0x0 DUP1 REVERT JUMPDEST POP PUSH2 0x109 PUSH2 0x238 JUMP JUMPDEST PUSH1 0x40 MLOAD DUP1 DUP3 DUP2 MSTORE PUSH1 0x20 ADD SWAP2 POP POP PUSH1 0x40 MLOAD DUP1 SWAP2 SUB SWAP1 RETURN JUMPDEST CALLVALUE DUP1 ISZERO PUSH2 0x12B JUMPI PUSH1 0x0 DUP1 REVERT JUMPDEST POP PUSH2 0x134 PUSH2 0x23E JUMP JUMPDEST PUSH1 0x40 MLOAD DUP1 DUP3 DUP2 MSTORE PUSH1 0x20 ADD SWAP2 POP POP PUSH1 0x40 MLOAD DUP1 SWAP2 SUB SWAP1 RETURN JUMPDEST CALLVALUE DUP1 ISZERO PUSH2 0x156 JUMPI PUSH1 0x0 DUP1 REVERT JUMPDEST POP PUSH2 0x15F PUSH2 0x244 JUMP JUMPDEST PUSH1 0x40 MLOAD DUP1 DUP3 DUP2 MSTORE PUSH1 0x20 ADD SWAP2 POP POP PUSH1 0x40 MLOAD DUP1 SWAP2 SUB SWAP1 RETURN JUMPDEST CALLVALUE DUP1 ISZERO PUSH2 0x181 JUMPI PUSH1 0x0 DUP1 REVERT JUMPDEST POP PUSH2 0x18A PUSH2 0x251 JUMP JUMPDEST PUSH1 0x40 MLOAD DUP1 DUP3 DUP2 MSTORE PUSH1 0x20 ADD SWAP2 POP POP PUSH1 0x40 MLOAD DUP1 SWAP2 SUB SWAP1 RETURN JUMPDEST CALLVALUE DUP1 ISZERO PUSH2 0x1AC JUMPI PUSH1 0x0 DUP1 REVERT JUMPDEST POP PUSH2 0x1B5 PUSH2 0x257 JUMP JUMPDEST PUSH1 0x40 MLOAD DUP1 DUP3 DUP2 MSTORE PUSH1 0x20 ADD SWAP2 POP POP PUSH1 0x40 MLOAD DUP1 SWAP2 SUB SWAP1 RETURN JUMPDEST CALLVALUE DUP1 ISZERO PUSH2 0x1D7 JUMPI PUSH1 0x0 DUP1 REVERT JUMPDEST POP PUSH2 0x1E0 PUSH2 0x25D JUMP JUMPDEST PUSH1 0x40 MLOAD DUP1 DUP3 DUP2 MSTORE PUSH1 0x20 ADD SWAP2 POP POP PUSH1 0x40 MLOAD DUP1 SWAP2 SUB SWAP1 RETURN JUMPDEST CALLVALUE DUP1 ISZERO PUSH2 0x202 JUMPI PUSH1 0x0 DUP1 REVERT JUMPDEST POP PUSH2 0x20B PUSH2 0x26A JUMP JUMPDEST PUSH1 0x40 MLOAD DUP1 DUP3 DUP2 MSTORE PUSH1 0x20 ADD SWAP2 POP POP PUSH1 0x40 MLOAD DUP1 SWAP2 SUB SWAP1 RETURN JUMPDEST PUSH1 0x0 PUSH1 0x32 TIMESTAMP ADD SWAP1 POP SWAP1 JUMP JUMPDEST PUSH1 0x0 PUSH2 0xE10 TIMESTAMP ADD SWAP1 POP SWAP1 JUMP JUMPDEST PUSH1 0x1 SLOAD DUP2 JUMP JUMPDEST PUSH1 0x4 SLOAD DUP2 JUMP JUMPDEST PUSH1 0x0 PUSH3 0x93A80 TIMESTAMP ADD SWAP1 POP SWAP1 JUMP JUMPDEST PUSH1 0x3 SLOAD DUP2 JUMP JUMPDEST PUSH1 0x0 SLOAD DUP2 JUMP JUMPDEST PUSH1 0x0 PUSH3 0x3F480 TIMESTAMP ADD SWAP1 POP SWAP1 JUMP JUMPDEST PUSH1 0x2 SLOAD DUP2 JUMP STOP LOG1 PUSH6 0x627A7A723058 KECCAK256 STOP DUP1 0x26 0xd0 0x29 0xe7 RETURNDATASIZE LT 0xf5 0xdd DUP5 DUP13 0xc4 0xe8 0x21 BYTE SUB 0x2d 0xe0 DUP5 LT DUP15 PUSH21 0x2040EBD5E9A49B17DF002900000000000000000000 "
		},
		"gasEstimates": {
			"creation": {
				"codeDepositCost": "133600",
				"executionCost": "100206",
				"totalCost": "233806"
			},
			"external": {
				"MasDias()": "361",
				"MasHoras()": "229",
				"MasSegundos()": "207",
				"MasSemanas()": "295",
				"cincuenta_dias()": "504",
				"dos_horas()": "570",
				"tiempo_actual()": "526",
				"un_minuto()": "438",
				"una_semana()": "460"
			}
		},
		"methodIdentifiers": {
			"MasDias()": "d2c5381a",
			"MasHoras()": "108c4abb",
			"MasSegundos()": "01a34875",
			"MasSemanas()": "1fd8d6b4",
			"cincuenta_dias()": "4f0cea83",
			"dos_horas()": "e8b1ed29",
			"tiempo_actual()": "5a9606a4",
			"un_minuto()": "172f11fc",
			"una_semana()": "183289fc"
		}
	},
	"abi": [
		{
			"constant": true,
			"inputs": [],
			"name": "MasSegundos",
			"outputs": [
				{
					"name": "",
					"type": "uint256"
				}
			],
			"payable": false,
			"stateMutability": "view",
			"type": "function"
		},
		{
			"constant": true,
			"inputs": [],
			"name": "MasHoras",
			"outputs": [
				{
					"name": "",
					"type": "uint256"
				}
			],
			"payable": false,
			"stateMutability": "view",
			"type": "function"
		},
		{
			"constant": true,
			"inputs": [],
			"name": "un_minuto",
			"outputs": [
				{
					"name": "",
					"type": "uint256"
				}
			],
			"payable": false,
			"stateMutability": "view",
			"type": "function"
		},
		{
			"constant": true,
			"inputs": [],
			"name": "una_semana",
			"outputs": [
				{
					"name": "",
					"type": "uint256"
				}
			],
			"payable": false,
			"stateMutability": "view",
			"type": "function"
		},
		{
			"constant": true,
			"inputs": [],
			"name": "MasSemanas",
			"outputs": [
				{
					"name": "",
					"type": "uint256"
				}
			],
			"payable": false,
			"stateMutability": "view",
			"type": "function"
		},
		{
			"constant": true,
			"inputs": [],
			"name": "cincuenta_dias",
			"outputs": [
				{
					"name": "",
					"type": "uint256"
				}
			],
			"payable": false,
			"stateMutability": "view",
			"type": "function"
		},
		{
			"constant": true,
			"inputs": [],
			"name": "tiempo_actual",
			"outputs": [
				{
					"name": "",
					"type": "uint256"
				}
			],
			"payable": false,
			"stateMutability": "view",
			"type": "function"
		},
		{
			"constant": true,
			"inputs": [],
			"name": "MasDias",
			"outputs": [
				{
					"name": "",
					"type": "uint256"
				}
			],
			"payable": false,
			"stateMutability": "view",
			"type": "function"
		},
		{
			"constant": true,
			"inputs": [],
			"name": "dos_horas",
			"outputs": [
				{
					"name": "",
					"type": "uint256"
				}
			],
			"payable": false,
			"stateMutability": "view",
			"type": "function"
		}
	]
}